S00B00004156522E7372656330
S11300000C942A000C9412040C943B040C94640485
S11300100C94DB050C94B4050C948B050C946405CA
S11300200C943D050C9416050C94DB040C94B40458
S11300300C948D040C947E060C94A6060C94CD06A8
S11300400C9409030C9447000C9447000C9447004B
S11300500C94470011241FBECFE5D8E0DEBFCDBF0E
S113006010E0A0E6B0E0E0E3FEE002C005900D92EF
S1130070A036B107D9F720E0A0E6B0E001C01D9298
S1130080A438B207E1F70E9487020C9416070C9477
S113009000008FEF0E9402060895FF920F931F93B2
S11300A0CF93DF93C82F8B01D42F9065F92E0E9434
S11300B015068F2D0E9438068C2F0E946206C0E020
S11300C007C0F801EC0FF11D80810E946206CF5F2A
S11300D0CD17B8F30E9431068FE39CE90197F1F73D
S11300E000C00000DF91CF911F910F91FF90089500
S11300F0EF92FF920F931F93CF93DF93F82E8B0110
S1130100D42FC92FC0650E9415068C2F0E94380673
S11301108F2D0E9462060E9423068C2F0E944D069A
S1130120C0E012C02C2F30E08D2F90E001972817EB
S1130130390711F40E947A067801EC0EF11C0E9432
S11301406E06F7018083CF5FCD1760F38FE39CE9E0
S11301500197F1F700C000000E943106EFE3FCE9CB
S11301603197F1F700C000000E947606DF91CF912D
S11301701F910F91FF90EF900895DF92EF92FF92FD
S11301800F931F93CF93DF9300D000D0CDB7DEB78A
S11301908C01D62EF12CE12C22C08E2D90E043E070
S11301A0BE016F5F7F4F880F991F880F991F0E94B0
S11301B0780020E011C0822F90E0F801E80FF91FC9
S11301C03081E1E0F0E0EC0FFD1FE80FF91F8081C2
S11301D0381304C0F3942F5F233068F3E394ED14D1
S11301E0E0F283E0F812E12C8E2D0F900F900F9027
S11301F00F90DF91CF911F910F91FF90EF90DF90BF
S1130200089541E062E080E00E94A20387EC90E060
S11302100197F1F700C0000040E062E080E00E9436
S1130220A2030895CF93C82F40E063E080E00E94CA
S1130230A203C3FB442740F964E081E00E94A203C7
S1130240C2FB442740F962E081E00E94A203C1FBA3
S1130250442740F961E081E00E94A2034C2F4170E1
S113026060E081E00E94A2030E940101CF91089501
S113027041E063E080E00E94320341E062E080E01C
S11302800E94320341E064E081E00E94320341E0D5
S113029062E081E00E94320341E061E081E00E947B
S11302A0320341E060E081E00E9432032FEF80E7F7
S11302B092E0215080409040E1F700C0000082E0CD
S11302C00E94120182E00E94120188E00E94120141
S11302D087EC90E00197F1F700C0000080E00E94F5
S11302E012018FE00E94120187EC90E00197F1F770
S11302F000C0000080E00E94120181E00E9412010F
S11303008FE39FE10197F1F700C0000080E00E94B5
S1130310120186E00E94120108951F93CF93DF9388
S1130320182FC82FC295CF70D0E024C041E063E0FD
S113033080E00E94A203C3FB442740F964E081E00B
S11303400E94A203C2FB442740F962E081E00E94BC
S1130350A203C1FB442740F961E081E00E94A203AB
S11303604C2F417060E081E00E94A2030E940101D1
S1130370DF5FC12FD230D0F2DF91CF911F9108956A
S11303800E948D010895CF93813059F4C0E8C60FBF
S11303908C2F82958F700E9412018C2F0E94120163
S11303A026C0823059F4C0ECC60F8C2F82958F7012
S11303B00E9412018C2F0E94120119C0833059F43B
S11303C0C4E9C60F8C2F82958F700E9412018C2F66
S11303D00E9412010CC0843051F4C4EDC60F8C2F5E
S11303E082958F700E9412018C2F0E941201CF916E
S11303F00895EF92FF920F931F93CF93DF937C01A5
S1130400D62FC0E009C06C2F8D2F0E94C301F801C4
S113041080810E94C001CF5F87010C0F111DF8017C
S113042080818111F0CFDF91CF911F910F91FF90C7
S1130430EF900895CF92DF92EF92FF921F93CF93A4
S1130440DF93CDB7DEB7C059D1400FB6F894DEBF05
S11304500FBECDBF9B01AC01672B682B692B31F517
S113046080E30E94C0013DC0CA01B9012AE030E026
S113047040E050E00E94F406F601EE0FFF1FEE0F7D
S1130480FF1FA1E0B0E0AC0FBD1FEA0FFB1FDC01B2
S1130490CB019927AA27BB2780839183A283B383A7
S11304A0BFEFCB1ADB0AEB0AFB0A03C0C12CD12C29
S11304B076012115310541055105B1F61FEF1C0DDB
S11304C00EC0E1E0F0E0EC0FFD1F84E01802E00D47
S11304D0F11D11248081805D0E94C00111501123FF
S11304E084F7C057DE4F0FB6F894DEBF0FBECDBF02
S11304F0DF91CF911F91FF90EF90DF90CF900895FF
S113050080E00E94120181E00E9412010895CF93BD
S1130510DF93CDB7DEB760970FB6F894DEBF0FBE9A
S1130520CDBF41E064E080E00E9432030E944900B4
S11305300E94380121E432E43A83298383E490E081
S11305409C838B8345E456E45E834D8347E450E00B
S113055058874F8319861A861B861C863E872D87EB
S1130560988B8F8744E0BE016B5F7F4F80E090E003
S11305700E944D0044E0BE016F5F7F4F84E090E035
S11305800E944D0044E0BE01675F7F4F80E090E031
S11305900E94780061E0CE0109960E94F9012FEFD4
S11305A083ED90E3215080409040E1F700C00000CB
S11305B00E94800244E0BE01675F7F4F84E090E0C8
S11305C00E94780061E0CE0109960E94F9012FEFA4
S11305D083ED90E3215080409040E1F700C000009B
S11305E00E94800262E0CE010D960E94BD00682F39
S11305F070E080E090E00E941A022FEF83ED90E318
S1130600215080409040E1F700C000000E94800229
S1130610FFCF1F920F920FB60F9211242F933F9387
S11306204F935F936F937F938F939F93AF93BF93F6
S1130630EF93FF93E0916400F0916500309709F027
S11306400995FF91EF91BF91AF919F918F917F9108
S11306506F915F914F913F912F910F900FBE0F902B
S11306601F9018954130A1F5813089F028F082302F
S1130670C9F0833011F108952AB381E090E002C0FB
S1130680880F991F6A95E2F7822B8ABB089527B3D6
S113069081E090E002C0880F991F6A95E2F7822BEF
S11306A087BB089524B381E090E002C0880F991FAE
S11306B06A95E2F7822B84BB089521B381E090E030
S11306C002C0880F991F6A95E2F7822B81BB0895B7
S11306D0411137C0813091F028F08230D9F0833055
S11306E029F108952AB381E090E002C0880F991F90
S11306F06A95E2F7809582238ABB089527B381E047
S113070090E002C0880F991F6A95E2F780958223D2
S113071087BB089524B381E090E002C0880F991F3D
S11307206A95E2F78095822384BB089521B381E022
S113073090E002C0880F991F6A95E2F780958223A2
S113074081BB08954130A1F5813089F028F08230D1
S1130750C9F0833011F108952BB381E090E002C019
S1130760880F991F6A95E2F7822B8BBB089528B3F3
S113077081E090E002C0880F991F6A95E2F7822B0E
S113078088BB089525B381E090E002C0880F991FCB
S11307906A95E2F7822B85BB089522B381E090E04D
S11307A002C0880F991F6A95E2F7822B82BB0895D5
S11307B0411137C0813091F028F08230D9F0833074
S11307C029F108952BB381E090E002C0880F991FAE
S11307D06A95E2F7809582238BBB089528B381E064
S11307E090E002C0880F991F6A95E2F780958223F2
S11307F088BB089525B381E090E002C0880F991F5B
S11308006A95E2F78095822385BB089522B381E03F
S113081090E002C0880F991F6A95E2F780958223C1
S113082082BB08951F920F920FB60F9211242F933B
S11308303F934F935F936F937F938F939F93AF9364
S1130840BF93EF93FF93E0916800F09169003097B4
S113085009F00995FF91EF91BF91AF919F918F910D
S11308607F916F915F914F913F912F910F900FBEA8
S11308700F901F9018951F920F920FB60F9211248C
S11308802F933F934F935F936F937F938F939F9394
S1130890AF93BF93EF93FF93E0916600F0916700ED
S11308A0309709F00995FF91EF91BF91AF919F9116
S11308B08F917F916F915F914F913F912F910F9005
S11308C00FBE0F901F9018951F920F920FB60F92A4
S11308D011242F933F934F935F936F937F938F9341
S11308E09F93AF93BF93EF93FF93E0916A00F091CE
S11308F06B00309709F00995FF91EF91BF91AF918B
S11309009F918F917F916F915F914F913F912F9123
S11309100F900FBE0F901F9018951F920F920FB655
S11309200F9211242F933F934F935F936F937F9371
S11309308F939F93AF93BF93EF93FF93E0916C00DA
S1130940F0916D000995FF91EF91BF91AF919F9147
S11309508F917F916F915F914F913F912F910F9064
S11309600FBE0F901F9018951F920F920FB60F9203
S113097011242F933F934F935F936F937F938F93A0
S11309809F93AF93BF93EF93FF93E0916E00F09129
S11309906F000995FF91EF91BF91AF919F918F9156
S11309A07F916F915F914F913F912F910F900FBE67
S11309B00F901F9018951F920F920FB60F9211244B
S11309C02F933F934F935F936F937F938F939F9353
S11309D0AF93BF93EF93FF93809160009091610078
S11309E001969093610080936000209162003091A1
S11309F063008217930749F410926100109260001B
S1130A00E0917000F09171000995FF91EF91BF9111
S1130A10AF919F918F917F916F915F914F913F9192
S1130A202F910F900FBE0F901F9018951F920F9249
S1130A300FB60F9211242F933F934F935F936F93AD
S1130A407F938F939F93AF93BF93EF93FF93E09123
S1130A507600F09177000995FF91EF91BF91AF91E6
S1130A609F918F917F916F915F914F913F912F91C2
S1130A700F900FBE0F901F9018951F920F920FB6F4
S1130A800F9211242F933F934F935F936F937F9310
S1130A908F939F93AF93BF93EF93FF93E091720073
S1130AA0F09173000995FF91EF91BF91AF919F91E0
S1130AB08F917F916F915F914F913F912F910F9003
S1130AC00FBE0F901F9018951F920F920FB60F92A2
S1130AD011242F933F934F935F936F937F938F933F
S1130AE09F93AF93BF93EF93FF93E0917A00F091BC
S1130AF07B000995FF91EF91BF91AF919F918F91E9
S1130B007F916F915F914F913F912F910F900FBE05
S1130B100F901F9018951F920F920FB60F921124E9
S1130B202F933F934F935F936F937F938F939F93F1
S1130B30AF93BF93EF93FF9386B597B5E091780099
S1130B40F09179000995FF91EF91BF91AF919F9139
S1130B508F917F916F915F914F913F912F910F9062
S1130B600FBE0F901F9018951F920F920FB60F9201
S1130B7011242F933F934F935F936F937F938F939E
S1130B809F93AF93BF93EF93FF93E0917400F09121
S1130B9075000995FF91EF91BF91AF919F918F914E
S1130BA07F916F915F914F913F912F910F900FBE65
S1130BB00F901F9018951F920F920FB60F92112449
S1130BC02F933F934F935F936F937F938F939F9351
S1130BD0AF93BF93EF93FF93E0917C00F0917D007E
S1130BE00995FF91EF91BF91AF919F918F917F9163
S1130BF06F915F914F913F912F910F900FBE0F9086
S1130C001F901895882314F0880F82B981B18E7FC4
S1130C1081B981B18D7F81B98CE080B986B7806458
S1130C2086BF86B7846086BF089586B7806286BF14
S1130C3086B7806886BF06B607FEFDCF81B1887F80
S1130C408830E1F7089586B7806286BF86B78068EA
S1130C5086BF06B607FEFDCF81B1887F8031E1F7FC
S1130C60089586B7806186BF86B7806886BF089579
S1130C70882394F0880F83B983B18E7F83B986B7B4
S1130C808F7D86BF86B7806886BF06B607FEFDCF18
S1130C9081B1887F8831E1F70895882394F0880F23
S1130CA083B983B1816083B986B78F7D86BF86B7E8
S1130CB0806886BF06B607FEFDCF81B1887F803489
S1130CC0E1F7089583B986B7806886BF06B607FE44
S1130CD0FDCF81B1887F8832E1F7089586B78068B7
S1130CE086BF06B607FEFDCF83B1089586B780643C
S1130CF086BF089586B78F7B86BF08951F920F9293
S1130D000FB60F9211242F933F934F935F936F93DA
S1130D107F938F939F93AF93BF93EF93FF938CB184
S1130D20E0918000F09181000995FF91EF91BF91CE
S1130D30AF919F918F917F916F915F914F913F916F
S1130D402F910F900FBE0F901F9018951F920F9226
S1130D500FB60F9211242F933F934F935F936F938A
S1130D607F938F939F93AF93BF93EF93FF93E09100
S1130D708200F09183000995FF91EF91BF91AF91AB
S1130D809F918F917F916F915F914F913F912F919F
S1130D900F900FBE0F901F9018951F920F920FB6D1
S1130DA00F9211242F933F934F935F936F937F93ED
S1130DB08F939F93AF93BF93EF93FF93E0917E0044
S1130DC0F0917F000995FF91EF91BF91AF919F91B1
S1130DD08F917F916F915F914F913F912F910F90E0
S1130DE00FBE0F901F901895A1E21A2EAA1BBB1BD1
S1130DF0FD010DC0AA1FBB1FEE1FFF1FA217B307E3
S1130E00E407F50720F0A21BB30BE40BF50B661FF8
S1130E10771F881F991F1A9469F7609570958095BC
S1130E2090959B01AC01BD01CF010895F894FFCFCB
S9030000FC
